:020000040800F2
:10000000E01B0020790200085D0200085F02000882
:1000100063020008670200086B020008000000008D
:100020000000000000000000000000006F02000857
:100030007102000800000000E740000817420008B5
:10004000930200089302000893020008930200083C
:10005000930200089302000893020008930200082C
:10006000930200089302000893020008930200081C
:10007000930200089302000893020008930200080C
:1000800093020008930200089302000893020008FC
:1000900093020008930200089302000893020008EC
:1000A00093020008930200089302000893020008DC
:1000B00093020008930200089302000893020008CC
:1000C00093020008930200089302000893020008BC
:1000D00093020008930200089302000893020008AC
:1000E000930200089302000893020008930200089C
:1000F000930200089302000893020008930200088C
:10010000930200089302000893020008930200087B
:10011000930200089302000893020008930200086B
:10012000930200089302000893020008930200085B
:10013000DFF80CD004F02EF900480047290200082F
:10014000E01B002001B500BF0098411E009100286F
:10015000FAD108BD13E03948FFF7F4FF4FF48041AE
:10016000374800F096FA3548FFF7ECFF4FF480412E
:10017000334800F08CFA4FF4FA7003F0EBFAEAE738
:1001800012E03048FFF7DEFF4FF400512E4800F038
:1001900080FA2C48FFF7D6FF4FF400512A4800F0B0
:1001A00076FAC82003F0D6FAEBE708B501214FF440
:1001B000907000F077FC4FF40050ADF80000102074
:1001C0008DF8030003208DF8020069461E4800F0F8
:1001D000B3F94FF400511C4800F059FA4FF4804035
:1001E000ADF8000010208DF8030003208DF8020008
:1001F0006946134800F0A0F94FF48041104800F020
:1002000046FA08BD10B5FFF7D0FF04F015F8072334
:100210000E4A00210E4802F027FF06230D4A002156
:100220000D4802F021FF10BD10B501F073F8FFF783
:10023000E9FF01F05AF9002010BD0000EFFF0800AF
:1002400000200140EFFF0F00001401408402002055
:10025000810100088404002055010008704700BF98
:10026000FEE700BFFEE700BFFEE700BFFEE7704706
:1002700070477047704700000648804706480047AF
:10028000FEE7FEE7FEE7FEE7FEE7FEE7FEE7FEE746
:10029000FEE7FEE779030008310100080CB50020F5
:1002A000019000906B48006840F480306949086014
:1002B00000BF6848006800F4003000900198401CBE
:1002C0000190009818B90198B0F5A06FF1D161487C
:1002D000006810F4003F02D00120009001E00020EF
:1002E00000900098012842D15B48006840F010005F
:1002F000594908600846006820F003000860084675
:10030000006840F002000860524840685149486067
:100310000846406848600846406840F4806048608D
:100320000846406820F47C1048600846406840F465
:10033000E81048600846006840F08070086000BF20
:100340004448006810F0007FFAD04248406820F02E
:100350000300404948600846406840F00200486099
:1003600000BF3C48406800F00C000828F9D10CBDE3
:1003700010B5FFF793FF10BD10B53648006840F088
:100380000100344908600846406834490840314952
:10039000486008460068324908402E49086008460F
:1003A000006820F4802008600846406820F4FE00C1
:1003B00048604FF41F008860FFF7DAFF4FF00060DD
:1003C0002849086010BD10B5002100200022214BF3
:1003D0005B6803F00C0121B1042906D0082928D15B
:1003E00007E0214B214C236027E01F4B1F4C23606B
:1003F00023E0184B5B6803F47010164B5B6803F442
:100400008032022303EB904022B9194B4343174C2F
:1004100023600DE00F4B5B6813F4003F04D0144BD6
:100420004343124C236003E00F4B43430F4C2360C4
:1004300003E00D4B0D4C236000BF00BF054B5B6814
:10044000C3F303130B4CE15C084B1B68CB40074C18
:10045000236010BD00100240002002400000FFF8A1
:10046000FFFFF6FE08ED00E000127A000000002019
:1004700000093D000400002010B50446CA4884422B
:1004800008D10121042000F027FB0021042000F006
:1004900023FB46E0C548844208D10121082000F032
:1004A0001BFB0021082000F017FB3AE0C048844203
:1004B00008D10121102000F00FFB0021102000F0D6
:1004C0000BFB2EE0BB48844208D10121202000F024
:1004D00003FB0021202000F0FFFA22E0B64884420E
:1004E00008D10121402000F0F7FA0021402000F05F
:1004F000F3FA16E0B148844208D10121802000F0CF
:10050000EBFA0021802000F0E7FA0AE0AC488442D0
:1005100007D10121801500F0DFFA0021A01500F0BD
:10052000DBFA10BD10B50121084600F0D5FA002114
:10053000012000F0D1FA10BD2DE9F041024600255E
:100540000026002000230024002791F803C00CF0AF
:100550000F0591F803C01CF0100F03D091F802C0F2
:100560004CEA050591F800C0BCF1000F31D01468C9
:1005700000202BE04FF0010C0CFA00F3B1F800C0A2
:100580000CEA03069E4220D183004FF00F0C0CFAB8
:1005900003F7BC4305FA03FC4CEA040491F803C0DA
:1005A000BCF1280F06D14FF0010C0CFA00FCC2F888
:1005B00014C00AE091F803C0BCF1480F05D14FF018
:1005C000010C0CFA00FCC2F810C0401C0828D1D362
:1005D0001460B1F800C0BCF1FF0F34DD5468002096
:1005E0002EE000F1080C4FF0010808FA0CF3B1F806
:1005F00000C00CEA03069E4221D183004FF00F0C8D
:100600000CFA03F7BC4305FA03FC4CEA040491F826
:1006100003C0BCF1280F05D100F1080C08FA0CF852
:10062000C2F8148091F803C0BCF1480F07D100F163
:10063000080C4FF0010808FA0CF8C2F81080401CB2
:100640000828CED35460BDE8F0814FF6FF710180D9
:10065000022181700421C170704702460020936816
:100660000B4201D0012000E000207047014688685D
:1006700080B2704702460020D3680B4201D00120AF
:1006800000E0002070470146C86880B270470161F1
:100690007047416170470AB1016100E041617047F4
:1006A000C16070474FF480320A4382618161826188
:1006B00082698269704702460020424B18684FF6F3
:1006C0008073184040EA021008433E4B18607047A0
:1006D0003D49C8617047F0B50A4600230024002157
:1006E000002500F00046B6F1004F02D1354EF16909
:1006F00001E0344E7168C0F3034583B200F4401644
:10070000B6F5401F08D121F070612E4E766826F0B4
:1007100070662C4F7E6012E000F48016B6F5801FE4
:1007200006D1032606FA05F4A14341F0706106E004
:10073000460D360103FA06F6B14341F0706122B16D
:10074000460D360103FA06F6314300F00046B6F1D5
:10075000004F02D11B4EF16101E01A4E7160F0BDF5
:1007600030B500228B071C0F0F2303FA04F2154B40
:1007700008338C1053F824309343124C08348D10F6
:1007800044F8253023468C1053F824308C07240F6E
:1007900000FA04F423430B4C08348D1044F8253040
:1007A00030BD0A490860704700080140000C014054
:1007B000001001400014014000180140001C0140DD
:1007C000002001400000014000002042DC002042E7
:1007D000DD48006840F00100DB49086008464068D9
:1007E000DA490840D849486008460068D8490840B6
:1007F000D54908600846006820F480200860084653
:10080000406820F4FE0048604FF41F008860704785
:10081000CD49096821F48031CB4A1160114609683D
:1008200021F480211160B0F5803F03D0B0F5802F16
:100830000ED106E0C449096841F48031C24A116012
:1008400007E0C149096841F4A021BF4A116000E0F6
:1008500000BF00BF704710B50146002200230020F2
:100860004A11012A02D1B84C236806E0022A02D1BB
:10087000B54C236A01E0B44C636A01F01F02012405
:1008800094401C4201D0012000E0002010BD38B58A
:10089000002000900024002500BF3120FFF7DBFF7F
:1008A00005460098401C00900098B0F5A06F01D05C
:1008B000002DF2D03120FFF7CEFF08B1012400E077
:1008C0000024204638BD014600209F4A106820F0D1
:1008D000F80040EAC100106070479E490860704708
:1008E00002460020984B586820F47C1042EA01032D
:1008F0001843954B58607047964908667047014603
:100900000020914A506820F003000843506070476F
:100910008D48406800F00C007047014600208A4A6C
:10092000506820F0F00008435060704701460020F6
:10093000854A506820F4E0600843506070470146E3
:100940000020814A506820F4605040EAC1005060A5
:10095000704729B17C4A527A02437B4B5A7204E0B9
:10096000794A527A8243784B5A7270477A490860C2
:10097000704701460020744A506820F44040084304
:10098000506070470021754A11706F4A82F820103C
:10099000012802D0042808D103E001216F4A117018
:1009A00004E005216D4A117000E000BF00BF7047F0
:1009B0006B49086070476449096A0143624A1162E1
:1009C0007047674944390860704730B500210022FC
:1009D000002400235C4D6D6805F00C0121B1042951
:1009E00005D0082923D105E05E4D056022E05D4D6C
:1009F00005601FE0544D6D6805F47012524D6D682E
:100A000005F48034022505EB92421CB9564D55433E
:100A100005600BE04C4D6D6815F4003F03D0524D5E
:100A20005543056002E04F4D5543056002E04D4DD2
:100A3000056000BF00BF444D6D6805F0F001090975
:100A40004A4D6B5C0568DD4045603F4D6D6805F4BF
:100A5000E061090A454D6B5C4568DD4085603A4DB3
:100A60006D6805F46051C90A404D6B5C4568DD4016
:100A7000C560354D6D6805F44041890B3C4D6B5C9C
:100A8000C568B5FBF3F5056130BD29B12E4A526941
:100A900002432D4B5A6104E02B4A526982432A4B90
:100AA0005A61704729B1284A92690243264B9A61DC
:100AB00004E0254A92698243234B9A61704729B129
:100AC000214AD2690243204BDA6104E01E4AD2690E
:100AD00082431D4BDA61704729B11B4AD268024339
:100AE000194BDA6004E0184AD2688243164BDA6088
:100AF000704729B1144A12690243134B1A6104E08A
:100B0000114A12698243104B1A61704714494039E7
:100B1000086070470F49C86470470B49C871704737
:100B20000948406A40F080700749486270470146B2
:100B30000020054A92680A4201D0012000E000200E
:100B40007047014988727047001002400000FFF8AA
:100B5000FFFFF6FE00004242D80042422010024051
:100B60008004424200127A0000093D001400002077
:100B7000240000200246002005E011F8013B02F8A5
:100B8000013B431CD8B20B78002BF6D11370704791
:100B90002DE9F04105460E461446002714B9002001
:100BA000BDE8F0811DB9042020700020F8E71EB9CF
:100BB0000C2020700020F3E7FE480078002803DDB9
:100BC000112020700020EBE72878012808D00228A7
:100BD00007D0032802D0042804D100E000BF00BFE2
:100BE00000BF03E0012020700020D9E700BF03F020
:100BF00059FA074605F10F013046FFF7BBFF804663
:100C0000384603F053FA002020704046C8E70146FA
:100C1000002002E0491C421CD0B20A78002AF9D117
:100C200070472DE9F04105460E4614464FF0000886
:100C30000CB9BDE8F08115B904202070F9E716B9A8
:100C40000C202070F5E7DB480078002802DD122038
:100C50002070EEE72878012808D0022807D0032862
:100C600002D0042804D100E000BF00BF00BF02E0B2
:100C700001202070DDE700BF03F014FA8046304603
:100C8000FFF7C5FF07460F2F05DD404603F00EFABC
:100C90000B202070CDE7314605F10F00FFF76AFF0A
:100CA000404603F003FA0020207000BFC1E7F0B512
:100CB000024612F8344F95785678A2F134020B466A
:100CC00018680FE000F10B073F5DB74300F10B0C14
:100CD0000CF8047067463F5D17B9877AAF43877297
:100CE0001B1D18680028EDD1F0BDB349B34A127836
:100CF000885CB349095CB04A515C01EBC001B14A60
:100D00001170704710B5002403F0CCF90446A948CF
:100D10000078F0B9AC480078D8B9FFF7E6FFA948E9
:100D20000078AA490978884213D0A948A5490978CA
:100D300050F82100A749086008460068806B401CF5
:100D400009688863A4480068401CA349086003F050
:100D5000C0F9204603F0AAF910BD70B50146002481
:100D60009E4D2D68EC619D4C246821620B461868ED
:100D70001BE09A4C246894F8345000F10B04645D35
:100D8000964D2D6895F835502C43944D2D6895F867
:100D9000346000F10B05AC55847A904D2D6895F8C0
:100DA00036502C4384721B1D18680028E1D18B4CEF
:100DB000246894F83420824CA45C884D2D6895F802
:100DC0003550AC437E4DAC542C46A45C44B9834CA6
:100DD000246894F83650794C2478AC43774D2C70C5
:100DE00070BD2DE9FF4F83B081460E461546109F1A
:100DF0000020009017B907B0BDE8F08FB9F1000FDF
:100E000003D1042038700020F5E71EB904203870A3
:100E10000020F0E71DB9042038700020EBE7002027
:100E20003060CA46D146DAF8004015E0207806283E
:100E300007D2DFE800F006040503070807E006E034
:100E400005E000BF00BF012038700020D3E700BFDD
:100E50000AF1040ADAF80040002CE7D1554800787E
:100E6000002803DD022038700020C4E756480078CF
:100E7000002803DD0D2038700020BCE703F012F9D4
:100E800000900020029083460190CA46DAF80040A4
:100E900068E02078062855D2DFE800F054182B03CC
:100EA0005556208900280CDD2089401E208110C65F
:100EB00001200290002001C50BF101001FFA80FB08
:100EC00003E0019840F00100019046E0606858B1ED
:100ED000606801C50020606010C6012002900BF11F
:100EE00001001FFA80FB03E0019840F0020001902E
:100EF00033E0D4F80480B8F8160000281DDDD8F8D7
:100F00001010081DC8F81000086801C5D8F80810AE
:100F1000D8F81000884203D1D8F80400C8F81000AF
:100F2000B8F81600401EA8F8160010C6012002905E
:100F30000BF101001FFA80FB03E0019840F0040070
:100F400001900AE000BF00BF009803F0AFF8002056
:100F500030600120387058464DE700BF0AF1040A9E
:100F6000DAF80040002C94D10298012808D1002022
:100F70003060009803F09AF80020387058463AE73D
:100F80001648006890F83000019941F0800108434C
:100F90001249096881F8300000201049096881F879
:100FA00031000E4906980968C8854846FFF7D5FE06
:100FB000009815E041000020D643000845000020BD
:100FC0004600002044000020420000204300002092
:100FD000540A002058000020280000205000002063
:100FE00003F064F8FFF78EFE03F05CF80090FA4817
:100FF000006890F8310020B101281BD0022818D1D8
:1010000000E000BFF4480068C4693CB110C600208D
:1010100030600BF101001FFA80FB09E00120EE496E
:10102000096881F831004946EB480068FFF73FFE48
:1010300006E000BF4946E8480068FFF738FE00BFF9
:1010400000BFE548006890F8310020B1012828D0A1
:10105000022825D11FE0207806280DD2DFE800F015
:101060000C0607030D0E002001C510E000BFDA4892
:101070000068406A01C50AE000BF00BF009803F0A5
:1010800015F800203060012038705846B3E600BFE4
:10109000002038700AE0002001C50E20387005E0FD
:1010A00000BF002001C50A20387000BF00BF00202B
:1010B000C949096881F83000C749096881F83100D9
:1010C000C5490968C861C44909680862C249096814
:1010D0004862009802F0EAFF58468CE67CB500258D
:1010E00014E06946284602F053FA064666B9BB4842
:1010F00050F8254044B1012C06D0D4E9020100EBA0
:10110000810060640198A064681CC5B21F2DE8DDF1
:101110007CBD002402E0C82002F01CFBB04800782F
:101120000028F8D0AF4800686421B0FBF1F0AD4969
:1011300008600846006828B90020AB490870FF2005
:1011400002F071FA00BF02F0ADFF0446A748006844
:10115000A74908600020A5490860204602F0A6FFC4
:10116000A34800689F490968B0FBF1F0C0F1640032
:101170009D49087002F0F0FFFFF7B0FF642002F015
:10118000E9FAE0E700B587B0032000218022994BFF
:10119000CDE90132CDE903104FF6FE701E23964AC9
:1011A0000090AFF2910001F0BBFF06AA93A11E20B0
:1011B00002F04AF907B000BD002400BF02F072FF40
:1011C00004468A480068401C88490860204602F0AE
:1011D0006DFF02F0C0FFF1E700B587B003200021EA
:1011E00080228A4BCDE90132CDE903104FF6FF7022
:1011F0001F23874A0090AFF23F0001F091FF06AA3B
:1012000084A11F2002F020F907B000BD04E00022F5
:1012100000F8012B4A1E91B20029F8DC704730B566
:101220004FF4A0717F48FFF7F1FF7E4B03F12005DB
:1012300000240AE0002018705D603F20D873002170
:10124000197420332035601C84B2092CF2DB002095
:10125000187058603F20D873002119747148724982
:10126000086030BD30B54FF4CF617048FFF7CEFF56
:1012700080215A48FFF7CAFF6C4B03F15C0500243C
:101280000AE05D613F2083F84C0000214D20C154ED
:101290005C335C35601CC4B2112CF2D30020586161
:1012A0003F2083F84C0000214D20C15400206049AC
:1012B00008605E485F49086030BD00225E4B1A70CE
:1012C0005E49002004E0002201F8012B421CD0B24C
:1012D0000428F8DB00225A4B1A705A4B1A705A4BEA
:1012E0001A603D4B1A607047002058490860584901
:1012F000087058490870584908705849087058498A
:1013000008603A4908603A4908603649086034493B
:101310000870704710B502F017FFFFF7E5FFFFF701
:10132000CCFFFFF79FFFFFF77AFF00F022FF01F0ED
:1013300064F801F0A4FBFFF74FFFFFF723FF02F073
:1013400033FE02F005FF02F09BFF10BD434800781A
:10135000012808D13E480078FF2804D23C48007894
:10136000401C3B490870704710B500243B4800788A
:10137000012830D102F096FE044635480078002856
:1013800004DD33480078401E314908703048007849
:10139000F0B930480078D8B9FFF7A7FC29480078A1
:1013A00027490978884213D00C482649097850F813
:1013B00021002549086008460068806B401C0968C8
:1013C000886327480068401C2549086002F086FEB3
:1013D000204602F06BFE10BD50000020540A002091
:1013E0004000002038000020340000204C00002085
:1013F0003C000020540600205008002075432F4F69
:10140000532D494920537461740000005408002092
:10141000500A002075432F4F532D49492049646CD1
:1014200065000000880400202C000020D40A002061
:101430005C000020540000204500002046000020F1
:101440004300002044000020580000206C000020D1
:1014500041000020420000204B0000204A000020F4
:101460002800002010B50024FE480078012811D182
:1014700002F018FE0446FC48007840B9FB480078AA
:10148000FF2804D2F9480078401CF849087020462B
:1014900002F00CFE10BD10B50024F24800780128BF
:1014A00022D102F0FFFD0446F0480078002818DD44
:1014B000EE480078401EED4908700846007860B993
:1014C000E948007828B9204602F0F0FDFFF71AFC41
:1014D0000AE0204602F0EAFD06E0204602F0E6FDC2
:1014E00002E0204602F0E2FD10BD10B5DD480078B4
:1014F00090B9FFF7FAFBDE480078DE490870DE4855
:10150000DB49097850F82100DC490860084600688A
:10151000DB49086002F0CDFD10BD10B500240220AB
:1015200002F018F902F0BEFD04460020D54908601B
:10153000204602F0BBFD642002F00CF902F0B2FD7F
:101540000446D0480068D04908600120CF4908709F
:10155000204602F0ABFD10BD70B5002602F04CFE37
:1015600002F0A0FD0646CA480068401CC849086051
:10157000304602F09BFDBB480078012858D1C54891
:10158000007820B1012804D0022809D103E0012508
:101590000BE0002509E001250120BE49087004E0A8
:1015A00001250020BB49087000BF00BF05B970BD10
:1015B000B948046838E002F075FD0646E08D78B35E
:1015C000E08D401E0004000CE08529D194F8300025
:1015D00010F0370F09D014F8300F20F037002070CA
:1015E00001206070A4F1300402E0002084F8310092
:1015F00094F8300010F0080F12D104F13404A078F0
:10160000A649097840EA0100A44908702078A44955
:10161000085C617840EA010014F83419A04A50547B
:101620006469304602F042FD94F832001F28C2D1AE
:1016300000BFBCE74FF48F707047704710B590F84B
:10164000342001F10B039B5C90F83540A34301F17A
:101650000B04A35423469B5C23B98B7A90F8364045
:10166000A3438B7210BD2DE9F04F05460F469046FF
:101670009946A87A8B490E5C05F10B00805D11F844
:1016800000B00BEBC60000F0FF0A7B4850F82A4080
:10169000002004F1240460812760207B20EA0800F8
:1016A000207384F80D90207BA4F1240410F0080F1F
:1016B0000DD194F8360079490978084377490870C4
:1016C0007748805D94F83510084375498855294658
:1016D0002046FFF7B3FF206A20B12046216AFFF7BA
:1016E000E6FAE5615046BDE8F08F10B5644A12682D
:1016F000D061634A126892F8343000F10B02D25C78
:101700005F4B1B6893F835301A435D4B1B6893F8A9
:10171000344000F10B031A55827A594B1B6893F839
:1017200036301A438272564A126892F834105C4A74
:10173000525C534B1B6893F835309A43584B5A54BC
:101740001A46525C42B94E4A126892F83630534AF1
:1017500012789A43514B1A7010BD0023837200F126
:101760000B01002204E0002301F8013B531CDAB214
:10177000042AF8DB704705E011F8013B00F8013B53
:10178000531E9AB2002AF7DC70472DE9F84F054640
:101790000E4617469846DDE90BABDDF82890002091
:1017A000009002F07FFC00903F480468002C58D065
:1017B00004F1180454F8040C3B490860009802F046
:1017C00075FC44F8186CA576002020766076E082DF
:1017D00044F814AC44F80C9C44F8107C24F808BC81
:1017E00024F8068CE077E810207705F00700E07613
:1017F000217F01208840A077E17E0120884060772A
:1018000000206060A0602061E0602062A0626062F1
:10181000E06220633F2084F83400A4F118044FF004
:1018200000014FF04D000155204602F0E4FC204637
:1018300002F08FFC02F036FC00900F4840F8254083
:101840001548006860610020A0611348006810B16D
:101850001148006884611048046004F13404A078E1
:1018600024E03FE04A000020410000204200002028
:101870004400002043000020540A002058000020AB
:10188000500000204C0000203800002040000020C4
:101890006C000020600000205C000020450000205B
:1018A00046000020D6430008540000201049097863
:1018B00040EA01000E49087020780E49085C617802
:1018C00040EA010014F834190A4A50540A480078D2
:1018D00000F1010008490870009802F0E7FB0020C1
:1018E000BDE8F88F009802F0E1FB4220F8E7000025
:1018F00045000020460000204B0000202DE9F05F4D
:1019000004460F4691461E464FF0000B16B90020C4
:10191000BDE8F09F1CB96E2030700020F8E72078F9
:10192000052803D0012030700020F1E709F0800A7B
:10193000BAF1000F04D029F080094FF0010801E04E
:101940004FF000080020307002F0ACFB8346B9F184
:10195000000F2CD0B9F1010F3BD0B9F1020F03D029
:10196000B9F1030F46D111E0208900EA0705BD4215
:1019700006D1B8F1010F05D12089A843208101E0EB
:1019800070203070584602F091FB3AE0208900EA5E
:10199000070535B1B8F1010F05D12089A843208191
:1019A00001E070203070584602F080FB29E0208969
:1019B00027EA0005BD4206D1B8F1010F05D1208903
:1019C0002843208101E070203070584602F06EFB01
:1019D00017E0208927EA000535B1B8F1010F05D1DC
:1019E00020892843208101E070203070584602F0A1
:1019F0005DFB06E0584602F059FB00256F20307071
:101A000000BF00BF284683E72DE9F04106460D469A
:101A1000002715B90020BDE8F081FE4800780028B5
:101A200003DD102028700020F5E702F03BFB07469D
:101A3000F948046894B100684068F74908600520D7
:101A400020702681002060603F20A0720021E1729A
:101A5000384602F02BFB0020287004E0384602F0E4
:101A600025FB722028702046D5E730B501464A682C
:101A700008682AB9CC68606028B10025456002E09A
:101A8000106000B142608B6800259D6230BDF0B5EA
:101A900006460F46B468002004F12C0460802780BD
:101AA000207920F0200020714FF000006071207933
:101AB000A4F12C04A8B904F13404A078D74909781A
:101AC00040EA0100D54908702078D549085C617862
:101AD00040EA010014F83419D14A50544FF001057E
:101AE00000E000253046FFF7C0FF2846F0BD2DE995
:101AF000F0470446894615464FF0000A15B92046BE
:101B0000BDE8F0871CB96E2028702046F8E7C14870
:101B10000078002803DD0F2028702046F0E72078A9
:101B2000052803D0012028702046E9E702F0BAFA20
:101B30008246606808B1012700E00027B9F1000F74
:101B400003D0B9F1010F40D11BE09FB93F20A07233
:101B50000021E17200202070AF4800686060002022
:101B60002081AD480460504602F0A0FA00202870A1
:101B7000002605E0504602F099FA492028702646D2
:101B80002AE0D4F8048005E000214046FFF77FFFFB
:101B9000D8F80080B8F1000FF6D13F20A0720021E4
:101BA000E172002020709C48006860600020208165
:101BB00099480460504602F079FA012F01D1FFF7ED
:101BC000A1F800202870002606E0504602F06EFAC8
:101BD00007202870264600BF00BF304690E72DE959
:101BE000F04105460E461446002714B90020BDE812
:101BF000F0811DB96E2020700020F8E71EB90C207E
:101C000020700020F3E783480078002803DD1120CE
:101C100020700020EBE702F045FA074628780528F7
:101C200006D0384602F042FA012020700020DEE79C
:101C300005F10A013046FEF79DFF8046384602F066
:101C400035FA002020704046D1E72DE9F0410546E5
:101C50000E4614464FF000080CB9BDE8F08115B9E6
:101C60006E202070F9E716B90C202070F5E769485E
:101C70000078002802DD12202070EEE702F012FA50
:101C800080462878052805D0404602F00FFA01204A
:101C90002070E2E73046FEF7BAFF07460F2F05DD5A
:101CA000404602F003FA73202070D6E7314605F172
:101CB0000A00FEF75FFF404602F0F8F900202070AE
:101CC00000BFCAE7F0B51446059E564F3F6897F827
:101CD000307047F02007DFF84CC1DCF800C08CF80A
:101CE00030700027DFF83CC1DCF800C08CF83170A0
:101CF0004C4F3F68FE854B4F3F68B9620C828B7436
:101D0000484F3F688F6047680F6000274F60C8608A
:101D1000456805B169604160424F3F6897F83420DB
:101D20003F4FBF5CDFF8FCC0DCF800C09CF835C05A
:101D300027EA0C07DFF8E8C00CF802706746BF5CC2
:101D40005FB9384F3F6897F836C0344F3F7827EA7D
:101D50000C07DFF8C8C08CF80070F0BD2DE9F04F1B
:101D600089B005460F4691469A46129E0020029081
:101D700016B909B0BDE8F08F1DB96E203070002093
:101D8000F7E724480078002803DD022030700020A7
:101D9000EFE725480078002803DD0D203070002093
:101DA000E7E72878052803D0012030700020E0E71D
:101DB00009F0800BBBF1000F04D029F080094FF02F
:101DC000010801E04FF0000802F06CF90290B9F14F
:101DD000000F57D0B9F1010F77D0B9F1020F03D03E
:101DE000B9F1030F70D12DE0288900EA0704BC4245
:101DF0001CD1B8F1010F02D12889A04328810948DC
:101E000000688485029802F051F900203070204665
:101E1000AFE7000041000020300000204500002016
:101E20004600002050000020420000204B463A4669
:101E300004A92846CDF800A0FFF744FF029802F05D
:101E400035F96AE0288900EA07047CB1B8F1010F8E
:101E500002D12889A0432881D74800688485029848
:101E600002F024F900203070204682E74B463A46C3
:101E700004A92846CDF800A0FFF724FF029802F03D
:101E800015F94AE0288927EA0004BC420FD1B8F1CD
:101E9000010F02D1288920432881C7480068848522
:101EA000029802F003F900203070204661E74B46AB
:101EB0003A4604A92846CDF800A0FFF703FF029890
:101EC00002F0F4F829E000E01FE0288927EA000486
:101ED0007CB1B8F1010F02D1288920432881B6488E
:101EE00000688485029802F0E1F8002030702046F6
:101EF0003FE74B463A4604A92846CDF800A0FFF735
:101F0000E1FE029802F0D2F807E0029802F0CEF863
:101F100000246F20307020462BE700BFFEF7F2FE52
:101F200002F0C0F80290A448006890F8310020B395
:101F3000A148006890F83100039000209E4909688C
:101F400081F8310004A8FFF790FD00209A49096844
:101F500081F83000029802F0A9F8002403980128C3
:101F600005D0022802D10E20307003E000BF0A2005
:101F7000307000BF00BF2046FBE68F480068848DAC
:101F8000B8F1010F1ED1B9F1000F0ED0B9F1010F58
:101F90000CD0B9F1020F03D0B9F1030F0AD100E060
:101FA00000BF2889A04328810BE000BF2889204377
:101FB000288106E0029802F079F86F203070002046
:101FC000D7E600BF029802F071F80020307020467A
:101FD000CFE670B5002502F065F805467648006842
:101FE000848D284602F062F8204670BD2DE9FC5F22
:101FF0000446894692461E46002000900EB9BDE870
:10200000FC9F1CB96E2030700020F8E7207805286E
:1020100003D0012030700020F1E702F043F8009077
:10202000BAF1000F03D0BAF1010F0AD104E0208900
:1020300020EA090020810BE0208940EA0900208184
:1020400006E0009802F032F8712030700020D6E7E8
:1020500000BF4FF0000B656855E0A87C40B3012835
:1020600038D0022802D0032844D111E02089298ADF
:1020700000EA0107288AB84209D139462846FFF705
:1020800006FD8046B8F1010F01D14FF0010B38E099
:102090002089298A00EA01074FB139462846FFF70F
:1020A000F6FC8046B8F1010F01D14FF0010B28E09A
:1020B000288A218920EA0107288AB84209D13946AD
:1020C0002846FFF7E4FC8046B8F1010F01D14FF03C
:1020D000010B16E0288A218920EA01074FB1394611
:1020E0002846FFF7D4FC8046B8F1010F01D14FF02C
:1020F000010B06E0009801F0D9FF6F20307000203E
:102100007DE700BF2D68002DA7D1009801F0CEFF1C
:10211000BBF1010F01D1FEF7F5FD01F0C3FF009007
:1021200020890190009801F0C1FF002030700198D3
:1021300065E72DE9F04105460C46002714B900205B
:10214000BDE8F0811DB96E2020700020F8E72878E6
:10215000052803D0012020700020F1E701F0A2FF44
:1021600007462E89384601F0A1FF00202070304636
:10217000E6E770B58C211148FFF748F80F4C04F1E1
:102180001C0600250AE00020207066603F20A07237
:102190000021E1721C341C36681C85B2042DF2DB70
:1021A0000020207060603F20A0720021E17203488F
:1021B0000349086070BD000050000020C8050020E1
:1021C000300000202DE9F84F06460F4690461C4689
:1021D000002000900CB9BDE8F88F1EB96220207075
:1021E0000020F8E716F0030F03D0622020700020D3
:1021F000F1E7022F03D25B2020700020EBE7B8F15B
:10220000040F03D25C2020700020E4E701F04AFFB5
:1022100000908B480568006820B1894800684068D4
:1022200087490860009801F041FF1DB95A202070CD
:102230000020D0E7B14606EB080A4FF0000B05E09E
:10224000C9F800A0D146C2440BF1010B781E5845D5
:10225000F6D80020C9F800002E606E602F61EF6094
:10226000C5F8088020702846B5E72DE9F0410446FE
:102270000D46002715B90020BDE8F0811CB960208B
:1022800028700020F8E701F00DFF0746206960B1D3
:102290006668306860602069401E2061384601F041
:1022A00005FF002028703046E6E7384601F0FEFEC4
:1022B0005D2028700020DFE72DE9F04105460E463D
:1022C0001446002714B90020BDE8F0811DB9602034
:1022D00020700020F8E71EB90C2020700020F3E7E2
:1022E00058480078002803DD112020700020EBE71B
:1022F00001F0D8FE074605F114013046FEF73AFC1E
:102300008046384601F0D2FE002020704046DBE7D0
:102310002DE9F04105460E4614464FF000080CB971
:10232000BDE8F08115B960202070F9E716B90C20DE
:102330002070F5E743480078002802DD1220207065
:10234000EEE701F0AFFE80463046FEF760FC074640
:102350000F2F05DD404601F0A9FE63202070DFE766
:10236000314605F11400FEF705FC404601F09EFEE3
:102370000020207000BFD3E770B504460D4600264C
:102380000CB9602070BD0DB95F20FBE701F08AFE3B
:102390000646D4E90310884204D3304601F086FE95
:1023A0005E20EFE76068286065602069401C20615E
:1023B000304601F07BFE0020E4E770B505460C4690
:1023C00000260DB9602070BD0CB96120FBE701F05B
:1023D00069FE06462868206068686060A868A0609A
:1023E000E868E06028692061304601F05FFED4E9CA
:1023F0000301401A60610020E5E770B5B42112487E
:10240000FEF704FF104C00250DE0681C00EBC00037
:102410000D4901EB800060603F202075002161754F
:102420002434681C85B2042DEFDB002060603F205F
:1024300020750021617504480149086070BD0000E5
:1024400064000020410000204C1100202DE9F041E3
:1024500006460D464FF0000815B90020BDE8F08192
:102460001EB9042028700020F8E73078022803D035
:10247000012028700020F1E701F014FE8046746806
:10248000E08A00280FDD2169081D20610F68E08ABD
:10249000401EE082A1682069884201D16068206105
:1024A0000020287002E01F2028700027404601F01D
:1024B000FDFD3846D2E72DE9F04106460F464FF0C4
:1024C0000008F7480078002802DD0020BDE8F08110
:1024D00001F0E8FD8046F3480468006820B1F14847
:1024E00000684068EF490860404601F0DFFD0CB32A
:1024F00001F0D8FD8046EC480568E5B10068006849
:10250000E9490860404601F0D1FD6E6006EB8700A6
:10251000A860EE602E61AF820020E8820220207069
:102520000020208165603F20E07300212174204657
:10253000FFF713F908E0DB4800686060D9480460E1
:10254000404601F0B3FD00242046BFE72DE9F047E7
:102550000446894615464FF0000A15B92046BDE8E5
:10256000F0871CB9042028702046F8E7207802285C
:1025700003D0012028702046F1E7C94800780028E0
:1025800003DD0F2028702046E9E701F08BFD82462D
:10259000A07A10B14FF0010801E04FF00008B9F146
:1025A000000F03D0B9F1010F4DD123E0B8F1000FB6
:1025B00019D13F20E073002121746668BA48006891
:1025C0003060B948066000202070B648006860603E
:1025D00000202081B3480460504601F067FD0020D0
:1025E0002870002705E0504601F060FD4920287062
:1025F00027462FE005E00023042219462046FFF776
:1026000032F8A07A0028F6D13F20E073002121742F
:102610006668A54800683060A34806600020207006
:10262000A04800686060002020819E4804605046F9
:1026300001F03CFDB8F1010F01D1FEF763FB002072
:102640002870002706E0504601F030FD0720287072
:10265000274600BF00BF384681E770B50546002613
:102660000DB9042070BD2878022801D00120F9E7B7
:1026700001F018FD06466C686068E06060682061E3
:102680000020E082304601F011FD0020EAE72DE94C
:10269000F0470646884615464FF0000915B9002058
:1026A000BDE8F0871EB9042028700020F8E73078D4
:1026B000022803D0012028700020F1E77848007834
:1026C000002803DD022028700020E9E77748007821
:1026D000002803DD0D2028700020E1E701F0E2FC76
:1026E00081467468E08A002813DD2169081D206195
:1026F0000F68E08A401EE082A1682069884201D10B
:1027000060682061484601F0D1FC002028703846FE
:10271000C6E76748006890F8300040F0040064495C
:10272000096881F8300000206149096881F83100AA
:102730005F480068A0F82E803046FEF7D6FF484676
:1027400001F0B4FCFEF7DEFA01F0ACFC814658481B
:10275000006890F8310020B101280DD002280AD17C
:1027600005E053480068476A002028700DE0002704
:102770000E20287009E000BF31464D480068FEF782
:102780005DFF00270A20287000BF00BF00204849D5
:10279000096881F830004649096881F831004449E8
:1027A0000968C86142490968086241490968486284
:1027B000484601F07BFC384672E72DE9F0410546BA
:1027C0000F4614464FF0000814B90020BDE8F08110
:1027D0001DB9042020700020F8E72878022803D0D3
:1027E000012020700020F1E701F05CFC8046A87A0F
:1027F00020B300267FB1012F0CD107E00223042271
:1028000000212846FEF72FFF701CC6B2A87A0028C8
:10281000F4D109E000BF0223042200212846FEF77C
:1028200022FF701CC6B200BF00BF404601F03EFC54
:10283000FEF768FA0E2020703046C7E7404601F0E8
:1028400035FC0020207000BFC0E72DE9F0410546AF
:102850000E46002715B90420BDE8F081287802282B
:1028600001D00120F8E701F01DFC0746A87A60B10D
:102870000023042231462846FEF7F5FE384601F0D3
:1028800015FCFEF73FFA0020E6E76C68E08AA18AB3
:1028900088420FDB384601F009FC1E20DCE700000F
:1028A000410000202C000020680000204200002091
:1028B00050000020E168081DE0600E60E08A401CC6
:1028C000E082D4E90210884201D16068E0603846B5
:1028D00001F0ECFB0020BFE72DE9F04105460E4674
:1028E000002715B90420BDE8F0812878022801D01E
:1028F0000120F8E701F0D6FB0746A87A60B1002373
:10290000042231462846FEF7AEFE384601F0CEFBE3
:10291000FEF7F8F90020E6E76C68E08AA18A8842B1
:1029200004DB384601F0C2FB1E20DCE76168206949
:10293000884201D1A06820612069001F20612069C0
:102940000660E08A401CE082384601F0AFFB0020C0
:10295000C9E72DE9F04105460F4616464FF000083D
:1029600015B90420BDE8F0812878022801D00120A3
:10297000F8E701F097FB8046A87AE8B116F0010F5E
:102980000AD005E00023042239462846FEF76BFEF4
:10299000A87A0028F6D105E000230422394628460B
:1029A000FEF761FE404601F081FB16F0040F01D1F5
:1029B000FEF7A8F90020D5E76C68E08AA18A884272
:1029C00004DB404601F072FB1E20CBE716F0020F3D
:1029D0000BD061682069884201D1A068206120691C
:1029E000001F20612069076009E0E168081DE060C0
:1029F0000F60D4E90210884201D16068E060E08A8B
:102A0000401CE082404601F051FB0020AAE72DE97E
:102A1000F04705460C464FF0000A15B90420BDE802
:102A2000F0870CB90920FAE72878022801D00120A4
:102A3000F5E701F037FB8246A87A207305F10B0811
:102A400004F10809002705E018F8010B09F8010B4B
:102A5000781CC7B2042FF7DB6E68F08A002803DD0C
:102A600030690068206001E000202060F08AA080CA
:102A7000B08AE080504601F019FB0020CFE770B526
:102A800060210A48FEF7C2FB084C04F11806002535
:102A900004E0266018341836681C85B2032DF8DB74
:102AA0000020206001480249086070BD001200202B
:102AB0006800002070B5044600260CB9002070BDE7
:102AC0002078032801D00020F9E701F0EBFA064650
:102AD0002589002D02DD2089401E2081304601F02D
:102AE000E5FA2846EBE770B505460026F148007880
:102AF000002801DD002070BD01F0D4FA0646EE4842
:102B00000468006820B1EC4800684068EA49086041
:102B1000304601F0CBFA5CB1032020702581002003
:102B200060603F20E073002121742046FEF715FE0F
:102B30002046E0E72DE9F0470446884615464FF069
:102B4000000915B92046BDE8F0871CB9042028709B
:102B50002046F8E72078032803D00120287020467B
:102B6000F1E7D4480078002803DD0F2028702046C4
:102B7000E9E701F097FA8146A07A08B1012700E061
:102B80000027B8F1000F03D0B8F1010F3ED11BE0D0
:102B90009FB93F20E0730021217400202070C648B7
:102BA0000068606000202081C3480460484601F04E
:102BB0007DFA00202870002605E0484601F076FAEC
:102BC00049202870264628E005E000230122194606
:102BD0002046FEF748FDA07A0028F6D13F20E0739A
:102BE0000021217400202070B3480068606000203C
:102BF0002081B1480460484601F058FA012F01D104
:102C0000FEF780F800202870002606E0484601F014
:102C10004DFA07202870264600BF00BF304692E7D5
:102C20002DE9F04105460E46144600270CB9BDE8D3
:102C3000F08115B904202070F9E72878032802D024
:102C400001202070F3E79B480078002802DD022075
:102C50002070ECE799480078002802DD0D202070F4
:102C6000E5E701F01FFA07462889002808DD2889D2
:102C7000401E2881384601F019FA00202070D6E75E
:102C80008F48006890F8300040F001008C490968D6
:102C900081F8300000208A49096881F831008848AD
:102CA0000068C6852846FEF720FD384601F0FEF98B
:102CB000FEF728F801F0F6F907468148006890F819
:102CC000310020B1012809D0022806D102E00020FD
:102CD00020700BE00E20207008E000BF29467848E5
:102CE0000068FEF7ABFC0A20207000BF00BF002088
:102CF0007349096881F830007149096881F8310029
:102D00006F490968C8616E4909680862384601F070
:102D1000CDF900BF8BE72DE9F04105460F4614467B
:102D20004FF0000814B90020BDE8F0811DB904205F
:102D300020700020F8E72878032803D001202070B5
:102D40000020F1E701F0AEF98046A87A20B3002612
:102D50007FB1012F0CD107E0022301220021284678
:102D6000FEF781FC701CC6B2A87A0028F4D109E0F5
:102D700000BF0223012200212846FEF774FC701CCC
:102D8000C6B200BF00BF404601F090F9FDF7BAFFA0
:102D90000E2020703046C7E7404601F087F900203A
:102DA000207000BFC0E770B5044600250CB90420B0
:102DB00070BD2078032801D00120F9E701F072F9F5
:102DC0000546A07A60B10023012219462046FEF78D
:102DD0004AFC284601F06AF9FDF794FF0020E7E776
:102DE00020894FF6FF71884207D22089401C20813C
:102DF000284601F05BF90020DAE7284601F056F991
:102E00003220D5E72DE9F04704460D464FF0000982
:102E100014B90420BDE8F0870DB90920FAE720783D
:102E2000032801D00120F5E701F03CF98146A07AA2
:102E3000A87104F10B07AE1C4FF0000807E017F86B
:102E4000010B06F8010B08F1010000F0FF08B8F1D2
:102E5000040FF4DB20892880484601F027F9002080
:102E6000D8E72DE9F04104460E46154600270DB976
:102E7000BDE8F08114B904202870F9E72078032810
:102E800002D001202870F3E701F00CF9074600207A
:102E900028702089002801DD268105E0A07A08B984
:102EA000268101E049202870384601F0FFF800BF74
:102EB000DEE70000410000202C000020420000203E
:102EC000500000202DE9F04F85B081468846002053
:102ED0000090B9F11F0F06DBB9F1FF0F03D02A20D4
:102EE00005B0BDE8F08FB8F11F0F01DB2A20F7E72E
:102EF00001F0D8F80090FC4850F8280020B1009864
:102F000001F0D4F82820EBE7B9F1FF0F03D1F7481F
:102F1000006890F83290F44850F8295025B900988C
:102F200001F0C4F82920DBE7012D04D1009801F05D
:102F3000BDF84320D4E74FEAE80708F00700039004
:102F40000120B84000F0FF0A01210398814001F000
:102F5000FF0B0020E44941F82900084640F82850BA
:102F600015F8346FA87802906878A5F134050190BF
:102F7000DF48815D019801421AD0DD48805D0199EA
:102F80008843DB4988550846805D28B9D9480078D0
:102F900002998843D7490870D648007840EA0A0069
:102FA000D4490870D248C05D40EA0B00D049C855EA
:102FB000EC69D4B104F10B00805D0199884304F100
:102FC0000B0188550846805D18B9A07A029988439C
:102FD000A072A07A40EA0A00A07204F10B00C05D62
:102FE00040EA0B0004F10B01C855286A30B3286A87
:102FF0000490049804681FE004F10B00805D0199BF
:10300000884304F10B0188550846805D18B9A07A01
:1030100002998843A072A07A40EA0A00A07204F1E3
:103020000B00C05D40EA0B0004F10B01C855049889
:10303000001D049004980468002CDDD185F83280CE
:1030400085F83470039885F8330085F836A085F844
:1030500035B0009801F02AF8A7480078012801D17E
:10306000FDF750FE00203BE72DE9FE4F06460F46D8
:1030700090461C464FF000091F2C02DD2A20BDE8B7
:10308000FE8F01F00FF881469C480078002804DD8F
:10309000484601F00BF83C20F1E7934850F8240033
:1030A00060BB0120904941F82400484600F0FEFF33
:1030B000002342463946304601F04FF88246002050
:1030C0000090019003460246514602902046FEF7CA
:1030D0005CFB054635B98848007801280CD1FDF71E
:1030E00011FE09E000F0DEFF814600207E4941F834
:1030F0002400484600F0DAFF2846C0E7484600F0C2
:10310000D5FF2820BBE712F0010F08D012F0020F04
:1031100005D002E0491E002308C00029FAD17047FB
:103120002DE9F04F85B081468A4693461C46DDE97D
:103130000F78129D002003901F2C03DD2A2005B07C
:10314000BDE8F08F00F0AEFF03906C4800780028D7
:1031500004DD039800F0AAFF3C20F0E7624850F835
:10316000240088BB0120604941F82400039800F046
:103170009DFF2A4641463846FFF7C5FF2B465A4673
:103180005146484600F0E9FF04901198CDE90080CF
:1031900002953A4620460E9B0499FEF7F6FA06463B
:1031A00036B95548007801280CD1FDF7ABFD09E090
:1031B00000F078FF039000204B4941F82400039869
:1031C00000F074FF3046BAE7FFE7039800F06EFFA7
:1031D0002820B4E72DE9F04105460027474800784C
:1031E000002802DD4020BDE8F0811F2D01D13E20E6
:1031F000F9E71F2D03DBFF2D01D02A20F3E700F0B4
:1032000051FF0746FF2D03D13848006890F832502F
:10321000354850F8254024B9384600F047FF432090
:10322000E1E7012C04D1384600F040FF3D20DAE709
:1032300014F8340F2E49085C6178884321782C4AB1
:10324000505414F834091146085C30B994F836101B
:1032500028480078884327490870E06918B120465B
:10326000E169FEF7EBF9206A18B12046216AFDF703
:103270001EFDA66A16B13046FEF7F7FB0020E0857A
:1032800084F8300084F831001D480078FF2804D20B
:103290001B480078401C1A490870384600F006FFA9
:1032A000FEF7CBF900F0FEFE07461548007800282F
:1032B00004DD13480078401E11490870204600F0D4
:1032C00049FF10480078401E0E490870002006494A
:1032D00041F82500A069C8B90020616988610A49E0
:1032E0006069086018E00000540A002050000020C7
:1032F00046000020450000204A0000204100002038
:10330000420000204B0000205C000020D4E90501B1
:103310004861D4E905108861FE4800686061FD4895
:1033200004603F2084F84C0000214D2001553846B0
:1033300000F0BCFEF8480078012801D1FDF7E2FC5E
:10334000002050E72DE9F041044600271F2C02D150
:103350003E20BDE8F0811F2C03DBFF2C01D02A208A
:10336000F7E7FF2C0BD100F09DFE0746EB48006805
:1033700090F83760384600F099FE3046E9E700F0F3
:1033800091FE0746E64850F8245025B9384600F02B
:103390008DFE4320DDE7012D04D1384600F086FE86
:1033A0003D20D6E73F2085F83700384600F07EFE06
:1033B0000020CEE72DE9F04705460F4614464FF0B2
:1033C000000814B90020BDE8F0871F2D05DDFF2D92
:1033D00003D02A2020700020F5E71FB90C202070B0
:1033E0000020F0E7CF480078002803DD112020708E
:1033F0000020E8E700F056FE8046FF2D03D1C748C5
:10340000006890F83250C64850F8256036B94046FA
:1034100000F04CFE432020700020D4E7012E06D19E
:10342000404600F043FE432020700020CBE706F129
:103430004C013846FDF79EFB8146404600F036FEC3
:10344000002020704846BEE72DE9F04705460F46AC
:1034500014464FF000090CB9BDE8F0871F2D04DDBC
:10346000FF2D02D02A202070F6E717B90C2020701B
:10347000F2E7AC480078002802DD12202070EBE76C
:1034800000F010FE8146FF2D03D1A448006890F89B
:103490003250A34850F825602EB9484600F006FE89
:1034A00043202070D8E7012E05D1484600F0FEFDEC
:1034B00043202070D0E73846FDF7A9FB8046B8F1DD
:1034C0000F0F05DD484600F0F1FD41202070C3E7F5
:1034D000394606F14C00FDF74DFB484600F0E6FD8D
:1034E0000020207000BFB7E770B5054600261F2DED
:1034F00001DB2A2070BD00F0D5FD0646884850F853
:10350000254024B9304600F0D1FD4620F2E7012CD9
:1035100004D1304600F0CAFD4320EBE794F83000B8
:1035200010F0080F2FD014F8300F20F00800207092
:1035300014F8300910BBE08DE0B904F13404A07830
:103540007949097840EA010077490870207877497D
:10355000085C617840EA010014F83419734A505449
:10356000304600F0A3FD6C480078012809D1FDF732
:10357000C9FB06E0304600F099FD02E0304600F05D
:1035800095FD0020B6E7304600F090FD4420B1E7FD
:103590002DE9F04706460C464FF0000A1F2E04DDC9
:1035A000FF2E02D02A20BDE8F0870CB90920FAE7E7
:1035B00000202060606000F075FD8246FF2E03D180
:1035C0005648006890F83260554850F8265025B9A2
:1035D000504600F06BFD4320E5E7012D04D1504635
:1035E00000F064FD4320DEE7287C10F0010F04D1D9
:1035F000504600F05BFD4520D5E70027D5F80C903C
:10360000D5F80880504600F051FD00E07F1C58F8C6
:10361000041B0029FAD0B8002060A9EB0700800045
:1036200060600020BFE72DE9F04105464FF000083B
:103630001F2D02D14720BDE8F0811F2D03DBFF2D98
:1036400001D02A20F7E700F02DFD8046FF2D05D19F
:103650003248006890F83250012608E02F48006890
:1036600090F83200A84201D1012600E000262C4843
:1036700050F8254024B9404600F018FD4820DAE70C
:10368000012C04D1404600F011FD4320D3E794F80B
:1036900034702648C05D94F8351088432349C855D6
:1036A0000846C05D30B994F836101F48007888434A
:1036B0001D49087094F8300040F0080084F830008C
:1036C000404600F0F3FC012E01D1FDF71BFB00206A
:1036D000B1E72DE9F04104460E4600271F2C04DD1A
:1036E000FF2C02D02A20BDE8F0810EB90920FAE7AC
:1036F00000F0D8FC0746FF2C03D10848006890F87A
:103700003240074850F8245095B9384600F0CEFCB6
:103710002920E8E7540000204A0000205000002043
:10372000540A0020410000204500002046000020EF
:10373000012D04D1384600F0B9FC4320D3E75C22C8
:1037400029463046FEF717F8384600F0AFFC002057
:10375000C9E7000070B505460026764800780028C5
:1037600000DD70BD002D23DD00F09CFC0646724894
:10377000006890F834407148005D6F49096891F81D
:10378000351088436D4908550846005D40B96A48C0
:10379000006890F836106A480078884368490870D5
:1037A00065480068C585304600F080FCFDF7AAFA40
:1037B00000BFD6E72DE9F04780460D4616461C4669
:1037C0005C480078002802DD5520BDE8F087B8F19C
:1037D000000F04D11DB916B90CB95420F5E73B2DE3
:1037E00001DD5120F1E73B2E01DD5220EDE7B4F57C
:1037F0007A7F01DB5320E8E74FF47A7060434FF49F
:103800007A71B0FBF1F14FF4616008FB00F0C5EB99
:10381000051200EB8200304400EB4002C2EBC01006
:1038200001EBC0074FEA1749BFB23846FFF792FFD6
:103830000BE04FF40040FFF78DFF4FF40040FFF71F
:1038400089FFA9F101001FFA80F9B9F1000FF0DC3E
:103850000020BAE770B5054600261F2D01DB2A209F
:1038600070BD00F01FFC0646364850F8254024B9CC
:10387000304600F01BFC4320F2E7012C04D1304617
:1038800000F014FC4320EBE7E08D20B9304600F057
:103890000DFC5020E4E70020E08594F8300010F0A3
:1038A000370F09D014F8300F20F0370020700120B6
:1038B0006070A4F1300402E0002084F8310094F834
:1038C000300010F0080F18D104F13404A0781C491E
:1038D000097840EA01001A49087020781749085C05
:1038E000617840EA010014F83419144A5054304603
:1038F00000F0DCFBFDF706FA02E0304600F0D6FBF4
:103900000020ADE770B5002500F0CCFB05460E4861
:103910000468284600F0CAFB204670BD70B5044616
:10392000002500F0BFFB054607480460284600F06C
:10393000BDFB70BD4100002050000020460000206B
:1039400045000020540A00206C00002010B5FA4801
:103950000068FFF728FA10BDF848006808B9002091
:103960007047F6480168F54AC86810600020C860D2
:103970000861F3480088401CF14A1080F148008833
:10398000401EF04A10800846EAE708B56A46002162
:10399000E9480068FFF744F908BD2DE9F05F0646E5
:1039A0000F4690469B46DDE90B9515B90020BDE812
:1039B000F09FB8F1010F08D0B8F1020F0BD11FB979
:1039C000832028700020F2E709E01EB982202870C9
:1039D0000020ECE703E0842028700020E7E700BF28
:1039E000D9480078002803DD8B2028700020DEE70E
:1039F000FFF7CBFFFFF7B0FF04462CB9FFF7A6FF98
:103A0000862028700020D2E7012084F83100A661CA
:103A1000E76184F83080C4F804B00A98A060B9F176
:103A2000000F18D04846FDF7F2F88246BAF1100FA1
:103A300005DA494604F12000FDF79CF80BE023204D
:103A400084F820000021212001558C202870FFF7E8
:103A50007DFF2046ABE7FFF779FF00202870204666
:103A6000A5E7002180F8311080F83010C161416174
:103A7000416081603F2180F82010002221210A54FA
:103A800000210161AD490968C160AC490860AC49D9
:103A90000988491EAA4A1180AA490988491CA94ACD
:103AA0001180704730B5057D05F00704A74D05EB83
:103AB000C4031D68854205D1C168196039B100256C
:103AC0000D6104E00169C268CA6002B1116101259B
:103AD00080F831500025C56005619D886D1E9D8070
:103AE00030BD70B505460C460CB9002070BD1DB93F
:103AF0008A2020700020F9E72878642803D08920E4
:103B000020700020F2E790480078002803DD8B2029
:103B100020700020EAE7FFF738FF95F83100D8B1B0
:103B200001280FD002280ED003281BD12846FFF70A
:103B3000B9FF2846FFF795FFFFF708FF0020207028
:103B40000120D3E700BF2846FFF78BFFFFF7FEFEFB
:103B5000002020700120C9E7FFF7F8FE87202070C1
:103B60000020C3E7FFF7F2FE8D2020700020BDE7A4
:103B70002DE9F04105460E46144614B90020BDE873
:103B8000F0811EB9882020700020F8E71DB98A2036
:103B900020700020F3E72878642803D08920207063
:103BA0000020ECE768480078002803DD1120207031
:103BB0000020E4E7FFF7E9FE95F8310098B101280D
:103BC00004D0022803D0032813D100BF00BF05F1A1
:103BD00020013046FCF7CEFF0746FFF7B7FE002076
:103BE00020703846CBE7FFF7B1FE87202070002019
:103BF000C5E7FFF7ABFE8D2020700020BFE770B552
:103C000005460C460CB9002070BD1DB98A202070F5
:103C10000020F9E72878642803D08920207000204C
:103C2000F2E749480078002803DD8B20207000204F
:103C3000EAE7FFF7AAFE95F8310070B301280DD02E
:103C4000022825D003282FD1414968690968461AFE
:103C5000FFF77CFE002020703046D5E795F8300055
:103C600001280CD0022809D1A86908B9EE6900E042
:103C7000AE69FFF76BFE0020207006E000BFAE6962
:103C8000FFF764FE0020207000BF00BF3046BBE796
:103C9000FFF75CFE00202070B6E7FFE7FFF756FE57
:103CA000872020700020AFE7FFF750FE8D202070A6
:103CB0000020A9E770B505460C460CB9002070BD80
:103CC0001DB98A2020700020F9E72878642803D0E5
:103CD000892020700020F2E71B480078002803DDCF
:103CE0008B2020700020EAE7FFF74FFE95F8316047
:103CF00036B1012E05D0022E04D0032E06D102E0EB
:103D000000BF00BF00BF0020207002E08D202070A7
:103D100000BF00BFFFF71AFE3046D0E770B50B4674
:103D2000032580F83150012B14D1094EC56936683E
:103D3000354445611BE00000780000208000002031
:103D4000720000207000002041000020A017002019
:103D50007400002085692DB9BC4EC56936683544AC
:103D6000456104E0B94E8569366835444561057D95
:103D700005F00704B64D05EBC4010D682DB90860C8
:103D80000025C56001258D8006E00A680860C260D4
:103D900010618D886D1C8D800025056170BD70B52A
:103DA00005460C460CB9002070BD1DB98A20207054
:103DB0000020F9E72878642803D0892020700020AB
:103DC000F2E7A4480078002803DD8B202070002053
:103DD000EAE7FFF7DAFD95F83100E8B1012810D0E5
:103DE00002280FD003281DD12846FFF75BFE0021D3
:103DF0002846FFF793FFFFF7A9FD00202070012060
:103E0000D2E700BF00212846FFF788FFFFF79EFD9D
:103E1000002020700120C7E7FFF798FD8720207061
:103E20000020C1E7FFF792FD8D2020700020BBE746
:103E30002DE9F04105460F4690461C4614B9002076
:103E4000BDE8F0811DB98A2020700020F8E72878AD
:103E5000642803D0892020700020F1E77D48007895
:103E6000002803DD8B2020700020E9E7FFF78DFD9F
:103E700095F8310090B301282AD0022827D00328D2
:103E800033D12846FFF70EFE00202070B7B1032F74
:103E900002D0042F13D108E06E681EB12846A9682D
:103EA000B04701E08F2020700CE06E681EB14146E3
:103EB0002846B04701E08F20207003E002E0842014
:103EC000207000BF00BFFFF741FD0120B8E700BF31
:103ED000FFF73CFD8E2020700120B1E7FFE7FFF7E0
:103EE00035FD872020700020AAE7FFF72FFD8D20E9
:103EF00020700020A4E710B557480068FEF753FF74
:103F00000446204610BD08B500BF6A46002152484D
:103F10000068FEF785FEFFF738FD4C480068401C3E
:103F20004A4908600846007800F00708484800EB56
:103F3000C8073C681AE0E668444960690968884235
:103F400013D1656815B12046A168A8472046FFF740
:103F5000A9FD94F83000022804D101212046FFF782
:103F6000DDFE02E0022084F831003446002CE2D16C
:103F7000FFF7ECFCC9E700B587B0032000218022E1
:103F8000364BCDE90132CDE903104FF6FD701D230C
:103F9000334A00903348FFF7C3F806AA32A11D2028
:103FA000FFF752FA07B000BDF8B54FF45071324830
:103FB000FDF72CF940212648FDF728F92E4C04F195
:103FC000340600250FE064202070002084F83100C2
:103FD000E6603F2084F82000002121200155343480
:103FE0003436681C85B20F2DEDDB64202070002074
:103FF00084F83100E0603F2084F820000021212077
:1040000001550020114908601C49088010201C49F6
:10401000088019481B4908600120FEF764FD1A4911
:1040200008600020FEF75FFD0B4908606A4617A193
:1040300015480068FCF7F5FD6A4617A106480068B8
:10404000FCF7EFFDFFF797FFF8BD000074000020BC
:10405000A0170020410000207C000020A0150020B7
:104060009C170020073F000875432F4F532D4949E7
:1040700020546D72000000006012002072000020C9
:104080007000002080000020780000204F532D5445
:104090006D724C6F636B00004F532D546D725369FA
:1040A00067000000EFF3108072B6704780F310884D
:1040B00070471D484FF0FF010170002080F3098810
:1040C0001A48012101701A484FF08051016062B610
:1040D000FEE717484FF080510160704714484FF0D9
:1040E00080510160704772B6EFF3098028B1203823
:1040F00080E8F00F0F490968086000B50E48804756
:104100005DF804EB0D480E490A78027009480D4924
:104110000A680260106890E8F00F203080F3098888
:104120004EF0040E62B6704722ED00E04A00002017
:1041300004ED00E050000020F5410008430000209D
:1041400044000020580000200020494908807047A2
:104150007047704770477047704770B50446104607
:104160004FF080750560051F28462C606FF0010632
:10417000051F28462E604FF01236051F28462E6078
:104180004FF00336051F28462E604FF00236051FFC
:1041900028462E607610051F28462E60051F2846EB
:1041A00029604FF01136051F28462E604FF010365B
:1041B000051F28462E604FF00936051F28462E6041
:1041C0004FF00836051F28462E604FF00736051FB2
:1041D00028462E604FF00636051F28462E604FF009
:1041E0000536051F28462E604FF00436051F284669
:1041F0002E6070BD7047704710B51D480088401C88
:104200001B49088008460088642803DB00200880DA
:10421000FFF771FE10BD10B5FFF744FF04461548C7
:104220000078401C134908702046FFF73FFFFDF758
:1042300093F9FDF799F810BD0F4909684FF47A72A8
:10424000B1FBF2F0411E4FF0E0225161FF210B4A19
:1042500011704FF0E021096941F005014FF0E022B3
:1042600011611146096941F00201116170470000B6
:1042700084000020410000200000002023ED00E029
:10428000174818481848194819481A481A481B4826
:104290001B481C481C481D481D481E481E481F48F6
:1042A0001F482048204821482148224822482348C6
:1042B0002348244824482548254826482648274896
:1042C000274828482848294829482A482A482B4866
:1042D0002B482C482C482D482D4800BF7047000023
:1042E000D8440008DC440008E0440008E244000828
:1042F000E4440008E6440008E8440008EA440008F2
:10430000EC440008EE440008F0440008F2440008C1
:10431000F4440008F6440008F8440008FA44000891
:10432000FC440008FE44000800450008024500085F
:104330000445000806450008084500080A4500082D
:104340000C4500080E4500081045000812450008FD
:104350001445000816450008184500081A450008CD
:104360001C4500081E45000820450008224500089D
:104370002445000826450008284500082A4500086D
:104380002C4500082E45000830450008324500083D
:1043900034450008064C074D06E0E06840F0010394
:1043A00094E8070098471034AC42F6D3FBF7C4FEFC
:1043B000384500085845000802E008C8121F08C127
:1043C000002AFAD170477047002001E001C1121F96
:1043D000002AFBD170470000010002000100030029
:1043E00001000200010004000100020001000300BE
:1043F00001000200010005000100020001000300AD
:10440000010002000100040001000200010003009D
:10441000010002000100060001000200010003008B
:10442000010002000100040001000200010003007D
:10443000010002000100050001000200010003006C
:10444000010002000100040001000200010003005D
:10445000010002000100070001000200010003004A
:10446000010002000100040001000200010003003D
:10447000010002000100050001000200010003002C
:10448000010002000100040001000200010003001D
:10449000010002000100060001000200010003000B
:1044A00001000200010004000100020001000300FD
:1044B00001000200010005000100020001000300EC
:1044C00001000200010004000100020001000300DD
:1044D00001000200010000000100000078563412C3
:1044E0000A00100001002000400101001C0014001F
:1044F0000200050010001F0001000100050010006F
:104500002400B400010004000100040018000400AD
:104510000100040001000100010080000100120000
:104520001000010080000100010020005C00E80391
:1045300001001E011A0E000058450008000000206E
:1045400088000000B8430008E0450008880000200B
:10455000581B0000C843000800A24A0400000000E5
:104560000000000001020304060708090000000023
:1045700001020304010203040607080902040608F5
:10458000000000000000000000000000000000002B
:10459000000000000000000000000000000000001B
:1045A000000000000000000000000000000000000B
:1045B00000000000000000000000000000000000FB
:1045C00000000000000000000000000000000000EB
:1045D00000000000000000000000000000000000DB
:0400000508000131BD
:00000001FF
